:100000000C9434000C9449000C9449000C94490061
:100010000C9449000C9449000C9449000C9449003C
:100020000C9449000C9449000C9449000C9449002C
:100030000C9449000C9449000C9449000C9449001C
:100040000C9449000C9449000C9449000C9449000C
:100050000C9449000C9449000C9449000C944900FC
:100060000C9449000C94490011241FBECFEFD8E036
:10007000DEBFCDBF11E0A0E0B1E0ECE2F1E002C0F4
:1000800005900D92A431B107D9F70E9471000C942C
:1000900094000C9400001092C50087E68093C40081
:1000A00088E18093C10086E08093C200089590911A
:1000B000C00095FFFCCF8093C60008958091C000DA
:1000C00087FFFCCF8091C6000895CF93DF93EC01AA
:1000D0008991811103C0DF91CF9108950E9457004B
:1000E000F7CF00D000D0CDB7DEB70E944B0080E044
:1000F00091E00E94650019821A821B821C8289810C
:100100009A81AB81BC8181159543AC40B10578F7EC
:1001100089819A81AB81BC810196A11DB11D898322
:0C0120009A83AB83BC83EBCFF894FFCF35
:10012C0048454C4C4F2046524F4D2041544D45476D
:04013C00410D0A0067
:00000001FF
